[
["The following are deserialized transactions which are valid."],
["They are in the form"],
["[[[prevout hash, prevout index, prevout scriptPubKey], [input 2], ...],"],
["serializedTransaction, verifyFlags]"],
["Objects that are only a single string (like this one) are ignored"],


["Coinbase of size 1"],
["Note the input is just required to make the tester happy"],
[[["0000000000000000000000000000000000000000000000000000000000000000", -1, "1"]],
"01000000010000000000000000000000000000000000000000000000000000000000000000ffffffff0151ffffffff010000000000000000045151515100000000", "SIGPUSHONLY"],

["Coinbase of size 100"],
["Note the input is just required to make the tester happy"],
[[["0000000000000000000000000000000000000000000000000000000000000000", -1, "1"]],
"01000000010000000000000000000000000000000000000000000000000000000000000000ffffffff6451515151515151515151515151515151515151515151515151515151515151515151515151515151515151515151515151515151515151515151515151515151515151515151515151515151515151515151515151515151515151515151515151515151ffffffff010000000000000000015100000000", "SIGPUSHONLY"],


["create contracts in coinbase"],
["create contract 1 FT"],
[[["0000000000000000000000000000000000000000000000000000000000000000", -1, "1"]],
 "01000000 01 0000000000000000000000000000000000000000000000000000000000000000ffffffff 0151 ffffffff 01 0000000000000080 0000000000000000000000000000000000000000000000000000000000000000ffffffff 0100000000000000000000000000000000000000000000000000000000000000 0100000000000000000000000000000000000000000000000000000000000000 012a 0000000000000000 0451515151 00000000", "SIGPUSHONLY"],

["create contract 1 NFT"],
[[["0000000000000000000000000000000000000000000000000000000000000000", -1, "1"]],
"01000000010000000000000000000000000000000000000000000000000000000000000000ffffffff0151ffffffff0101000000000000800000000000000000000000000000000000000000000000000000000000000000ffffffff01000000000000000000000000000000000000000000000000000000000000000100000000000000000000000000000000000000000000000000000000000000012a0000000000000000045151515100000000", "SIGPUSHONLY"],

["create contract 2^256-1 FT"],
[[["0000000000000000000000000000000000000000000000000000000000000000", -1, "1"]],
"01000000010000000000000000000000000000000000000000000000000000000000000000ffffffff0151ffffffff0100000000000000800000000000000000000000000000000000000000000000000000000000000000ffffffffffffffffffffffffffffffffffffffffffffffffffffffffffffffffffffffffffffffffffffffffffffffffffffffffffffffffffffffffffffffffffffffff012a0000000000000000045151515100000000", "SIGPUSHONLY"],

["create contract 2^256-1 NFT"],
[[["0000000000000000000000000000000000000000000000000000000000000000", -1, "1"]],
"01000000010000000000000000000000000000000000000000000000000000000000000000ffffffff0151ffffffff0101000000000000800000000000000000000000000000000000000000000000000000000000000000ffffffffffffffffffffffffffffffffffffffffffffffffffffffffffffffffffffffff0100000000000000000000000000000000000000000000000000000000000000012a0000000000000000045151515100000000", "SIGPUSHONLY"],

["create contract 0 FT MINT"],
[[["0000000000000000000000000000000000000000000000000000000000000000", -1, "1"]],
"01000000010000000000000000000000000000000000000000000000000000000000000000ffffffff0151ffffffff0102000000000000800000000000000000000000000000000000000000000000000000000000000000ffffffff00000000000000000000000000000000000000000000000000000000000000000100000000000000000000000000000000000000000000000000000000000000012a0000000000000000045151515100000000", "SIGPUSHONLY"],

["create contract 0 NFT MINT"],
[[["0000000000000000000000000000000000000000000000000000000000000000", -1, "1"]],
"01000000010000000000000000000000000000000000000000000000000000000000000000ffffffff0151ffffffff0103000000000000800000000000000000000000000000000000000000000000000000000000000000ffffffff00000000000000000000000000000000000000000000000000000000000000000100000000000000000000000000000000000000000000000000000000000000012a0000000000000000045151515100000000", "SIGPUSHONLY"],


["transfer contract in normal transactions"],
["transfer contract 1 FT"],
    [[["0100000000000000000000000000000000000000000000000000000000000000", 1, "1", 0, "FT", "0100000000000000000000000000000000000000000000000000000000000000", 1, "0000000000000000000000000000000000000000000000000000000000000001", "0000000000000000000000000000000000000000000000000000000000000001", "*"]],
"01000000 01 0000000000000000000000000000000000000000000000000000000000000001 01000000 0151ffffffff 01 0000000000000080 0000000000000000000000000000000000000000000000000000000000000001 01000000 0100000000000000000000000000000000000000000000000000000000000000 0100000000000000000000000000000000000000000000000000000000000000 012a 0000000000000000045151515100000000", "SIGPUSHONLY"],

["transfer contract 1 NFT"],
    [[["0100000000000000000000000000000000000000000000000000000000000000", 1, "1", 0, "NFT", "0100000000000000000000000000000000000000000000000000000000000000", 1, "0000000000000000000000000000000000000000000000000000000000000001", "0000000000000000000000000000000000000000000000000000000000000001", "*"]],
"01000000010000000000000000000000000000000000000000000000000000000000000001010000000151ffffffff01010000000000008000000000000000000000000000000000000000000000000000000000000000010100000001000000000000000000000000000000000000000000000000000000000000000100000000000000000000000000000000000000000000000000000000000000012a0000000000000000045151515100000000", "SIGPUSHONLY"],

["transfer contract 2^256-1 FT"],
    [[["0100000000000000000000000000000000000000000000000000000000000000", 1, "1", 0, "FT", "0100000000000000000000000000000000000000000000000000000000000000", 1, "ffffffffffffffffffffffffffffffffffffffffffffffffffffffffffffffff", "ffffffffffffffffffffffffffffffffffffffffffffffffffffffffffffffff", "*"]],
"01000000010000000000000000000000000000000000000000000000000000000000000001010000000151ffffffff010000000000000080000000000000000000000000000000000000000000000000000000000000000101000000ffffffffffffffffffffffffffffffffffffffffffffffffffffffffffffffffffffffffffffffffffffffffffffffffffffffffffffffffffffffffffffffff012a0000000000000000045151515100000000", "SIGPUSHONLY"],

["transfer contract 2^256-1 NFT"],
    [[["0100000000000000000000000000000000000000000000000000000000000000", 1, "1", 0, "NFT", "0100000000000000000000000000000000000000000000000000000000000000", 1, "ffffffffffffffffffffffffffffffffffffffffffffffffffffffffffffffff", "0000000000000000000000000000000000000000000000000000000000000001", "*"]],
"01000000010000000000000000000000000000000000000000000000000000000000000001010000000151ffffffff010100000000000080000000000000000000000000000000000000000000000000000000000000000101000000ffffffffffffffffffffffffffffffffffffffffffffffffffffffffffffffff0100000000000000000000000000000000000000000000000000000000000000012a0000000000000000045151515100000000", "SIGPUSHONLY"],

["transfer contract 1 FT MINT"],
    [[["0100000000000000000000000000000000000000000000000000000000000000", 1, "1", 0, "FT_MINT", "0100000000000000000000000000000000000000000000000000000000000000", 1, "0000000000000000000000000000000000000000000000000000000000000001", "0000000000000000000000000000000000000000000000000000000000000002", "*"]],
"01000000010000000000000000000000000000000000000000000000000000000000000001010000000151ffffffff 02 0200000000000080 000000000000000000000000000000000000000000000000000000000000000101000000 0200000000000000000000000000000000000000000000000000000000000000 0200000000000000000000000000000000000000000000000000000000000000 012a 00000000000000000451515151 0000000000000080 000000000000000000000000000000000000000000000000000000000000000101000000 0100000000000000000000000000000000000000000000000000000000000000 0200000000000000000000000000000000000000000000000000000000000000 012a 0000000000000000045151515100000000", "SIGPUSHONLY"],


["transfer contract 1 NFT MINT"],
    [[["0100000000000000000000000000000000000000000000000000000000000000", 1, "1", 0, "NFT_MINT", "0100000000000000000000000000000000000000000000000000000000000000", 1, "00000000000000000000000000000000000000000000000000000000000000001", "0000000000000000000000000000000000000000000000000000000000000002", "*"]],
"01000000 01 0000000000000000000000000000000000000000000000000000000000000001 01000000 0151ffffffff 02 0300000000000080 000000000000000000000000000000000000000000000000000000000000000101000000 0200000000000000000000000000000000000000000000000000000000000000 0200000000000000000000000000000000000000000000000000000000000000 012a 00000000000000000451515151 0100000000000080 000000000000000000000000000000000000000000000000000000000000000101000000 0200000000000000000000000000000000000000000000000000000000000000 0200000000000000000000000000000000000000000000000000000000000000 012a 0000000000000000045151515100000000", "SIGPUSHONLY"],


    ["first transfer contracts in normal transactions, check 3.1"],
["transfer contract 1 FT"],
    [[["0100000000000000000000000000000000000000000000000000000000000000", 1, "1", 0, "FT", "0000000000000000000000000000000000000000000000000000000000000000", -1, "0000000000000000000000000000000000000000000000000000000000000001", "0000000000000000000000000000000000000000000000000000000000000002", "*"]],
"01000000010000000000000000000000000000000000000000000000000000000000000001010000000151ffffffff 01 0000000000000080 000000000000000000000000000000000000000000000000000000000000000101000000 0100000000000000000000000000000000000000000000000000000000000000 0200000000000000000000000000000000000000000000000000000000000000 012a 0000000000000000045151515100000000", "SIGPUSHONLY"],

["transfer contract 1 NFT"],
    [[["0100000000000000000000000000000000000000000000000000000000000000", 1, "1", 0, "NFT", "0000000000000000000000000000000000000000000000000000000000000000", -1, "0000000000000000000000000000000000000000000000000000000000000001", "0000000000000000000000000000000000000000000000000000000000000002", "*"]],
"01000000010000000000000000000000000000000000000000000000000000000000000001010000000151ffffffff010100000000000080000000000000000000000000000000000000000000000000000000000000000101000000 0100000000000000000000000000000000000000000000000000000000000000 0200000000000000000000000000000000000000000000000000000000000000 012a 0000000000000000045151515100000000", "SIGPUSHONLY"],

["transfer contract 2^256-1 FT"],
    [[["0100000000000000000000000000000000000000000000000000000000000000", 1, "1", 0, "FT", "0000000000000000000000000000000000000000000000000000000000000000", -1, "ffffffffffffffffffffffffffffffffffffffffffffffffffffffffffffffff", "ffffffffffffffffffffffffffffffffffffffffffffffffffffffffffffffff", "*"]],
"01000000010000000000000000000000000000000000000000000000000000000000000001010000000151ffffffff010000000000000080000000000000000000000000000000000000000000000000000000000000000101000000 ffffffffffffffffffffffffffffffffffffffffffffffffffffffffffffffff ffffffffffffffffffffffffffffffffffffffffffffffffffffffffffffffff 012a 0000000000000000045151515100000000", "SIGPUSHONLY"],

["transfer contract 2^256-1 NFT"],
    [[["0100000000000000000000000000000000000000000000000000000000000000", 1, "1", 0, "NFT", "0000000000000000000000000000000000000000000000000000000000000000", -1, "ffffffffffffffffffffffffffffffffffffffffffffffffffffffffffffffff", "0000000000000000000000000000000000000000000000000000000000000002", "*"]],
"01000000010000000000000000000000000000000000000000000000000000000000000001010000000151ffffffff010100000000000080000000000000000000000000000000000000000000000000000000000000000101000000 ffffffffffffffffffffffffffffffffffffffffffffffffffffffffffffffff 0200000000000000000000000000000000000000000000000000000000000000 012a 0000000000000000045151515100000000", "SIGPUSHONLY"],

["Correct signature order"],
["Note the input is just required to make the tester happy"],
    [[["b3da01dd4aae683c7aee4d5d8b52a540a508e1115f77cd7fa9a291243f501223", 0, "HASH160 0x14 0xb1ce99298d5f07364b57b1e5c9cc00be0b04a954 EQUAL", 80000]],
"01000000012312503f2491a2a97fcd775f11e108a540a5528b5d4dee7a3c68ae4add01dab300000000fdfe0000483045022100f6649b0eddfdfd4ad55426663385090d51ee86c3481bdc6b0c18ea6c0ece2c0b0220561c315b07cffa6f7dd9df96dbae9200c2dee09bf93cc35ca05e6cdf613340aa0148304502207aacee820e08b0b174e248abd8d7a34ed63b5da3abedb99934df9fddd65c05c4022100dfe87896ab5ee3df476c2655f9fbe5bd089dccbef3e4ea05b5d121169fe7f5f4014c695221031d11db38972b712a9fe1fc023577c7ae3ddb4a3004187d41c45121eecfdbb5b7210207ec36911b6ad2382860d32989c7b8728e9489d7bbc94a6b5509ef0029be128821024ea9fac06f666a4adc3fc1357b7bec1fd0bdece2b9d08579226a8ebde53058e453aeffffffff0180380100000000001976a914c9b99cddf847d10685a4fabaa0baf505f7c3dfab88ac00000000", "SIGPUSHONLY"],


["Empty pubkey"],
    [[["229257c295e7f555421c1bfec8538dd30a4b5c37c1c8810bbe83cafa7811652c", 0, "0x00 CHECKSIG NOT", 1]],
"01000000012c651178faca83be0b81c8c1375c4b0ad38d53c8fe1b1c4255f5e795c25792220000000049483045022100d6044562284ac76c985018fc4a90127847708c9edb280996c507b28babdc4b2a02203d74eca3f1a4d1eea7ff77b528fde6d5dc324ec2dbfdb964ba885f643b9704cd01ffffffff010100000000000000232102c2410f8891ae918cab4ffc4bb4a3b0881be67c7a1e7faa8b5acf9ab8932ec30cac00000000", "SIGPUSHONLY"],

["Empty signature"],
    [[["9ca93cfd8e3806b9d9e2ba1cf64e3cc6946ee0119670b1796a09928d14ea25f7", 0, "0x21 0x028a1d66975dbdf97897e3a4aef450ebeb5b5293e4a0b4a6d3a2daaa0b2b110e02 CHECKSIG NOT", 1]],
"0100000001f725ea148d92096a79b1709611e06e94c63c4ef61cbae2d9b906388efd3ca99c000000000100ffffffff0101000000000000002321028a1d66975dbdf97897e3a4aef450ebeb5b5293e4a0b4a6d3a2daaa0b2b110e02ac00000000", "SIGPUSHONLY"],


    [[["ebbcf4bfce13292bd791d6a65a2a858d59adbf737e387e40370d4e64cc70efb0", 0, "2 0x21 0x033bcaa0a602f0d44cc9d5637c6e515b0471db514c020883830b7cefd73af04194 0x21 0x03a88b326f8767f4f192ce252afe33c94d25ab1d24f27f159b3cb3aa691ffe1423 2 CHECKMULTISIG NOT", 1]],
"0100000001b0ef70cc644e0d37407e387e73bfad598d852a5aa6d691d72b2913cebff4bceb000000004a00473044022068cd4851fc7f9a892ab910df7a24e616f293bcb5c5fbdfbc304a194b26b60fba022078e6da13d8cb881a22939b952c24f88b97afd06b4c47a47d7f804c9a352a6d6d0100ffffffff0101000000000000002321033bcaa0a602f0d44cc9d5637c6e515b0471db514c020883830b7cefd73af04194ac00000000", "SIGPUSHONLY"],

    [[["ba4cd7ae2ad4d4d13ebfc8ab1d93a63e4a6563f25089a18bf0fc68f282aa88c1", 0, "2 0x21 0x037c615d761e71d38903609bf4f46847266edc2fb37532047d747ba47eaae5ffe1 0x21 0x02edc823cd634f2c4033d94f5755207cb6b60c4b1f1f056ad7471c47de5f2e4d50 2 CHECKMULTISIG NOT", 1]],
"0100000001c188aa82f268fcf08ba18950f263654a3ea6931dabc8bf3ed1d4d42aaed74cba000000004b0000483045022100940378576e069aca261a6b26fb38344e4497ca6751bb10905c76bb689f4222b002204833806b014c26fd801727b792b1260003c55710f87c5adbd7a9cb57446dbc9801ffffffff0101000000000000002321037c615d761e71d38903609bf4f46847266edc2fb37532047d747ba47eaae5ffe1ac00000000", "SIGPUSHONLY"],


["An valid Transaction with invalid redeem script, it is valid"],
[[["0000000000000000000000000000000000000000000000000000000000000100", 0, "HASH160 0x14 0x7a052c840ba73af26755de42cf01cc9e0a49fef0 EQUAL"]],
"010000000100010000000000000000000000000000000000000000000000000000000000000000000009085768617420697320ffffffff010000000000000000015100000000", "SIGPUSHONLY"],


["Make diffs cleaner by leaving a comment here without comma at the end"]
]
